:020000040800F2
:1000000000200020B9260008FD260008FD26000873
:10001000FD260008FD260008FD260008000000005F
:10002000000000000000000000000000FD260008A5
:10003000FD26000800000000FD260008AD2800088D
:10004000FD260008FD260008FD260008FD26000804
:10005000FD260008FD260008FD260008FD260008F4
:10006000FD260008FD260008FD260008FD260008E4
:10007000FD260008FD260008FD260008FD260008D4
:10008000FD260008FD2600089D270008FD26000823
:10009000FD260008FD260008FD260008FD260008B4
:1000A000FD260008FD260008FD260008FD260008A4
:1000B000FD260008FD260008FD260008FD26000894
:1000C000FD260008FD260008FD260008FD26000884
:1000D000FD2600085D1F00086D1F0008FD260008B2
:1000E000FD260008FD260008FD260008000000008F
:1000F0000000000000000000000000000000000000
:1001000000000000000000005FF808F110B5054C89
:10011000237833B9044B13B10448AFF300800123B3
:10012000237010BD6004002000000000C0330008F0
:10013000084B10B51BB108480849AFF300800848C8
:10014000036803B910BD074B002BFBD0BDE810407E
:10015000184700BF00000000C033000864040020FE
:100160005C0400200000000080B582B000AF1023C6
:10017000FB700223BB704FF4C8533B803B461F48C3
:10018000194601F01BFAC0233B803B461C48194628
:1001900001F014FA4FF463433B803B46194819467B
:1001A00001F00CFA15484FF4C85101F02BFB14482C
:1001B000C02101F027FB13484FF4634101F022FBFB
:1001C00000237B6000237B6002E07B6801337B605F
:1001D0007B680D4A9342F8D908484FF4C85101F0A2
:1001E0001FFB0748C02101F01BFB06484FF4634189
:1001F00001F016FB0837BD4680BD00BF0008014076
:10020000000C0140001001403F420F0080B582B059
:1002100000AF78607B68264A93420AD14FF4804051
:10022000012100F0A7FF4FF48040002100F0A2FF61
:100230003AE07B681F4A93420AD14FF40030012113
:1002400000F0B6FF4FF40030002100F0B1FF2BE0CA
:100250007B68194A93420AD14FF48020012100F0B3
:10026000A7FF4FF48020002100F0A2FF1CE07B6874
:10027000124A93420AD14FF40020012100F098FF66
:100280004FF40020002100F093FF0DE07B680C4A42
:10029000934209D14FF48010012100F089FF4FF4FF
:1002A0008010002100F084FF0837BD4680BD00BFEC
:1002B000003801400044004000480040004C00402D
:1002C0000050004080B58CB000AF786039600023EA
:1002D000FB620023BB6200237B6200233B6200239E
:1002E000FB617B68FB617B681B8A9BB2FB62FA6ADD
:1002F0004CF6FF731340FB623B68DB881A46FB6ACF
:100300001343FB62FB6A9AB27B681A827B689B8903
:100310009BB2FB62FA6A4EF6F3131340FB623B6832
:100320009A883B681B8913439AB23B685B891343E5
:100330009BB21A46FB6A1343FB62FB6A9AB27B6864
:100340009A817B689B8A9BB2FB62FA6A4FF6FF43F5
:100350001340FB623B689B891A46FB6A1343FB62AE
:10036000FB6A9AB27B689A8207F10803184600F08C
:10037000F5FDFB692E4A934202D17B69BB6201E025
:100380003B69BB627B689B899BB29BB21BB2002B13
:100390000CDABA6A13469B0013449A001A443B686D
:1003A0001B685B00B2FBF3F37B620BE0BA6A134697
:1003B0009B0013449A001A443B681B689B00B2FBE5
:1003C000F3F37B627B6A1B4AA2FB03235B091B01DD
:1003D000FB62FB6A1B09642202FB03F37A6AD31AED
:1003E0003B627B689B899BB29BB21BB2002B0CDAF1
:1003F0003B6ADB0032330F4AA2FB03235B0903F0A5
:100400000703FA6A1343FB620BE03B6A1B013233BA
:10041000084AA2FB03235B0903F00F03FA6A1343A4
:10042000FB62FB6A9AB27B681A813037BD4680BD99
:10043000003801401F85EB5180B483B000AF786075
:100440007B684FF416521A607B6800229A807B68A2
:100450000022DA807B6800221A817B680C225A8194
:100460007B6800229A810C37BD465DF8047B70479B
:1004700080B485B000AF786039600023FB607B6892
:100480001B8A9BB2FB60FA684FF2FF031340FB60CC
:100490003B681A883B685B8813439AB23B689B8829
:1004A00013439AB23B68DB8813439BB21A46FB683E
:1004B0001343FB60FB689AB27B681A821437BD460F
:1004C0005DF8047B704700BF80B483B000AF7860F4
:1004D0007B6800221A807B6800225A807B68002299
:1004E0009A807B680022DA800C37BD465DF8047B79
:1004F000704700BF80B483B000AF78600B46FB70DC
:10050000FB78002B08D07B689B899BB243F4005397
:100510009AB27B689A8107E07B689B899BB223F43F
:1005200000539AB27B689A810C37BD465DF8047B14
:10053000704700BF80B487B000AF78600B467B8007
:1005400013467B7000233B610023FB600023BB60EC
:1005500000237B617B687B617B88DBB25B09DBB25C
:100560003B617B8803F01F03FB60FB68012202FAFA
:1005700003F3BB603B69012B03D17B690C337B61C7
:1005800009E03B69022B03D17B6910337B6102E0F8
:100590007B6914337B617B78002B06D07B697A6999
:1005A0001168BA680A431A6006E07B697A691168C3
:1005B000BA68D2430A401A601C37BD465DF8047B16
:1005C000704700BF80B483B000AF78600B467B807B
:1005D00013467B707B78002B08D07B689B8A9AB28D
:1005E0007B8813439AB27B689A8209E07B689B8A76
:1005F0009AB27B88DB439BB213409AB27B689A82A3
:100600000C37BD465DF8047B704700BF80B483B0F3
:1006100000AF78600B46FB707B681B8A9BB223F0AF
:100620000F039AB27B681A827B681B8A9AB2FB78A6
:100630009BB213439AB27B681A820C37BD465DF8B1
:10064000047B704780B483B000AF78600B467B803A
:100650007B689B899BB223F400639AB27B689A8182
:100660007B689B899AB27B8813439AB27B689A8194
:100670000C37BD465DF8047B704700BF80B483B083
:1006800000AF78600B46FB70FB78002B08D07B68CE
:100690009B899BB243F002039AB27B689A8107E080
:1006A0007B689B899BB223F002039AB27B689A8194
:1006B0000C37BD465DF8047B704700BF80B483B043
:1006C00000AF78600B467B807B681B8A9BB223F06F
:1006D00020039AB27B681A827B681B8A9AB27B8855
:1006E00013439AB27B681A820C37BD465DF8047BCF
:1006F000704700BF80B483B000AF78600B46FB70DA
:10070000FB78002B08D07B681B8A9BB243F48043A4
:100710009AB27B681A8207E07B681B8A9BB223F43B
:1007200080439AB27B681A820C37BD465DF8047B21
:10073000704700BF80B483B000AF78600B467B8009
:100740007B88C3F308039AB27B689A800C37BD4656
:100750005DF8047B704700BF80B483B000AF786061
:100760007B689B889BB2C3F308039BB218460C3787
:10077000BD465DF8047B704780B483B000AF7860FD
:100780007B689B899BB243F001039AB27B689A8194
:100790000C37BD465DF8047B704700BF80B483B062
:1007A00000AF78600B46FB707B681B8B9BB2DBB2A3
:1007B0009AB27B681A837B681B8B9AB2FB789BB2D8
:1007C0001B029BB213439AB27B681A830C37BD4657
:1007D0005DF8047B704700BF80B483B000AF7860E1
:1007E0000B46FB707B681B8B9BB223F0FF039AB216
:1007F0007B681A837B681B8B9AB2FB789BB213438E
:100800009AB27B681A830C37BD465DF8047B70474B
:1008100080B483B000AF78600B46FB70FB78002B90
:1008200008D07B689B8A9BB243F020039AB27B6816
:100830009A8207E07B689B8A9BB223F020039AB2DE
:100840007B689A820C37BD465DF8047B704700BF19
:1008500080B483B000AF78600B46FB70FB78002B50
:1008600008D07B689B8A9BB243F010039AB27B68E6
:100870009A8207E07B689B8A9BB223F010039AB2AE
:100880007B689A820C37BD465DF8047B704700BFD9
:1008900080B483B000AF78600B46FB70FB78002B10
:1008A00008D07B689B8A9BB243F008039AB27B68AE
:1008B0009A8207E07B689B8A9BB223F008039AB276
:1008C0007B689A820C37BD465DF8047B704700BF99
:1008D00080B483B000AF78600B46FB70FB78002BD0
:1008E0000AD07B689B899BB26FEA43436FEA53430C
:1008F0009AB27B689A8107E07B689B899BB2C3F3BD
:100900000E039AB27B689A810C37BD465DF8047B72
:10091000704700BF80B483B000AF78600B46FB70B7
:10092000FB78002B08D07B689B8A9BB243F4006362
:100930009AB27B689A8207E07B689B8A9BB223F419
:1009400000639AB27B689A820C37BD465DF8047BDF
:10095000704700BF80B483B000AF78600B467B80E7
:100960007B689B8A9BB223F004039AB27B689A82CD
:100970007B689B8A9AB27B8813439AB27B689A827F
:100980000C37BD465DF8047B704700BF80B483B070
:1009900000AF78600B46FB70FB78002B08D07B68BB
:1009A0009B8A9BB243F002039AB27B689A8207E06B
:1009B0007B689B8A9BB223F002039AB27B689A827F
:1009C0000C37BD465DF8047B704700BF80B485B02E
:1009D00000AF78600B467B800023FB737B681B882D
:1009E0009AB27B8813409BB2002B02D00123FB7389
:1009F00001E00023FB73FB7B18461437BD465DF80E
:100A0000047B704780B483B000AF78600B467B8076
:100A10007B88DB439AB27B681A800C37BD465DF851
:100A2000047B704780B487B000AF78600B467B8052
:100A30000023FB6000237B610023BB600023FB7469
:100A40007B88DBB25B09DBB2BB607B8803F01F03F2
:100A50007B617B69012202FA03F37B61BB68012B96
:100A600007D17B689B899BB21A467B6913407B61E7
:100A700011E0BB68022B07D17B681B8A9BB21A4628
:100A80007B6913407B6106E07B689B8A9BB21A46B8
:100A90007B6913407B617B881B0A9BB2FB60FB6810
:100AA000012202FA03F3FB607B681B889BB21A46A3
:100AB000FB681340FB607B69002B05D0FB68002BB3
:100AC00002D00123FB7401E00023FB74FB7C184679
:100AD0001C37BD465DF8047B704700BF80B485B00D
:100AE00000AF78600B467B800023FB810023BB8135
:100AF0007B881B0AFB81FB89012202FA03F3BB817D
:100B0000BB89DB439AB27B681A801437BD465DF817
:100B1000047B704780B582B000AF4FF4E06000F016
:100B200009FC27233B7100237B710123BB71012347
:100B3000FB713B1D184600F00FFC12233B70002395
:100B40007B700223BB700123FB703B46184600F00C
:100B500003FC0837BD4680BD80B400AF134A134B79
:100B60001B6843F0010313601049104B5A68104B87
:100B700013404B600D4A0D4B1B6823F0847323F424
:100B800080331360094A094B1B6823F480231360E8
:100B9000064A064B5B6823F4FE035360034B4FF495
:100BA0001F029A60BD465DF8047B7047001002404A
:100BB0000000FFF880B483B000AF7860134A134B95
:100BC0001B6823F480331360104A104B1B6823F416
:100BD000802313607B68B3F5803F03D0B3F5802F8B
:100BE00007D00DE0094A094B1B6843F480331360BA
:100BF00006E0064A054B1B6843F4A023136000BFC0
:100C00000C37BD465DF8047B704700BF0010024002
:100C100080B582B000AF00233B600023FB7100234E
:100C2000BB71312000F012FB0346BB713B680133FE
:100C30003B603B68B3F5A06F02D0BB79002BF0D0CE
:100C4000312000F003FB0346002B02D00123FB718F
:100C500001E00023FB71FB7918460837BD4680BDD3
:100C600080B485B000AF0346FB710023FB600A4BE4
:100C70001B68FB60FB6823F0F803FB60FB79DB007B
:100C8000FA681343FB60044AFB6813601437BD46DF
:100C90005DF8047B704700BF0010024080B483B051
:100CA00000AF0346FB71044AFB7913600C37BD4665
:100CB0005DF8047B704700BF0000424280B485B0FD
:100CC00000AF786039600023FB600A4B5B68FB6013
:100CD000FB6823F47C13FB607A683B681343FA6873
:100CE0001343FB60034AFB6853601437BD465DF84D
:100CF000047B70470010024080B483B000AF03460D
:100D0000FB71044AFB7913600C37BD465DF8047B28
:100D1000704700BF6000424280B485B000AF786089
:100D20000023FB60094B5B68FB60FB6823F0030357
:100D3000FB60FA687B681343FB60044AFB685360FE
:100D40001437BD465DF8047B704700BF00100240B9
:100D500080B400AF054B5B68DBB203F00C03DBB281
:100D60001846BD465DF8047B704700BF0010024086
:100D700080B485B000AF78600023FB60094B5B68EE
:100D8000FB60FB6823F0F003FB60FA687B681343A9
:100D9000FB60044AFB6853601437BD465DF8047B72
:100DA000704700BF0010024080B485B000AF78608B
:100DB0000023FB60094B5B68FB60FB6823F4E06386
:100DC000FB60FA687B681343FB60044AFB6853606E
:100DD0001437BD465DF8047B704700BF0010024029
:100DE00080B485B000AF78600023FB60094B5B687E
:100DF000FB60FB6823F46053FB607B68DB00FA68F0
:100E00001343FB60034AFB6853601437BD465DF82B
:100E1000047B70470010024080B483B000AF0346EB
:100E20000A46FB711346BB71BB79002B08D00C49F5
:100E30000B4B1B78DAB2FB791343DBB20B7009E082
:100E40000749074B1B78DAB2FB79DB43DBB213406F
:100E5000DBB20B700C37BD465DF8047B704700BFFA
:100E60000910024080B483B000AF7860034A7B6809
:100E700013600C37BD465DF8047B7047D8004242D2
:100E800080B485B000AF78600023FB60094B5B68DD
:100E9000FB60FB6823F44043FB60FA687B68134304
:100EA000FB60044AFB6853601437BD465DF8047B61
:100EB000704700BF0010024080B483B000AF03460B
:100EC000FB710C4B00221A700A4B00221A70FB793E
:100ED000012B02D0042B04D007E0064B01221A702C
:100EE00003E0044B05221A7000BF0C37BD465DF8C5
:100EF000047B70472010024080B483B000AF0346EB
:100F0000FB71044AFB7913600C37BD465DF8047B26
:100F1000704700BF8004424280B483B000AF786065
:100F20000549054B1A6A7B6813430B620C37BD46B3
:100F30005DF8047B704700BF0010024080B483B0AE
:100F400000AF0346FB71044AFB7913600C37BD46C2
:100F50005DF8047B704700BF3C04424280B487B018
:100F600000AF786000237B6100233B610023FB60BE
:100F70000023BB604D4B5B6803F00C037B617B6916
:100F8000042B07D0082B09D0002B34D17B68484AAA
:100F90001A6034E07B68464A1A6030E0434B5B6875
:100FA00003F470133B61414B5B6803F48033FB60D7
:100FB0003B699B0C02333B61FB68002B06D13B690C
:100FC0003C4A02FB03F27B681A6013E0374B5B6814
:100FD00003F40033002B06D03B69364A02FB03F2D0
:100FE0007B681A6006E03B69314A02FB03F27B68CA
:100FF0001A6004E003E07B682D4A1A6000BF2B4BA7
:101000005B6803F0F0037B617B691B097B612A4A03
:101010007B6913441B78DBB2BB607B681A68BB68D2
:10102000DA407B685A60214B5B6803F4E0637B61C4
:101030007B691B0A7B61204A7B6913441B78DBB206
:10104000BB607B685A68BB68DA407B689A60174B64
:101050005B6803F460537B617B69DB0A7B61164A42
:101060007B6913441B78DBB2BB607B685A68BB6842
:10107000DA407B68DA600D4B5B6803F440437B61C8
:101080007B699B0B7B610D4A7B6913441B78DBB248
:10109000BB607B68DA68BB68B2FBF3F27B681A61FD
:1010A0001C37BD465DF8047B704700BF001002404E
:1010B00000127A0000093D0000000020100000200E
:1010C00080B483B000AF78600B46FB70FB78002BD8
:1010D00006D00949084B5A697B6813434B6106E007
:1010E0000549054B5A697B68DB4313404B610C375C
:1010F000BD465DF8047B70470010024080B483B0A9
:1011000000AF78600B46FB70FB78002B06D00949D6
:10111000084B9A697B6813438B6106E00549054BD0
:101120009A697B68DB4313408B610C37BD465DF8E1
:10113000047B70470010024080B483B000AF786039
:101140000B46FB70FB78002B06D00949084BDA6987
:101150007B681343CB6106E00549054BDA697B6880
:10116000DB431340CB610C37BD465DF8047B704711
:101170000010024080B483B000AF78600B46FB7073
:10118000FB78002B06D00949084BDA687B681343CB
:10119000CB6006E00549054BDA687B68DB4313400A
:1011A000CB600C37BD465DF8047B704700100240F1
:1011B00080B483B000AF78600B46FB70FB78002BE7
:1011C00006D00949084B1A697B6813430B6106E096
:1011D0000549054B1A697B68DB4313400B610C37EB
:1011E000BD465DF8047B70470010024080B483B0B8
:1011F00000AF0346FB71044AFB7913600C37BD4610
:101200005DF8047B704700BF4004424280B483B065
:1012100000AF0346FB71044AFB7913600C37BD46EF
:101220005DF8047B704700BF4C00424280B483B03D
:1012300000AF0346FB71044AFB7913700C37BD46BF
:101240005DF8047B704700BF0710024080B487B090
:1012500000AF0346FB710023FB6000237B6100238A
:10126000FB74FB795B09DBB2FB60FB68012B03D1EC
:10127000124B1B687B6109E0FB68022B03D10F4B0B
:101280001B6A7B6102E00D4B5B6A7B61FB7903F0BB
:101290001F03FB60FB687A6922FA03F303F0010382
:1012A000002B02D00123FB7401E00023FB74FB7CC4
:1012B00018461C37BD465DF8047B7047001002409D
:1012C00080B400AF044A044B5B6A43F080735362FE
:1012D000BD465DF8047B70470010024080B485B0C5
:1012E00000AF0346FB710023FB73094B9A68FB793F
:1012F0001340002B02D00123FB7301E00023FB739A
:10130000FB7B18461437BD465DF8047B704700BF71
:101310000010024080B483B000AF0346FB71044A62
:10132000FB7913700C37BD465DF8047B704700BF36
:101330000A10024080B483B000AF7860054A7B6831
:1013400043F0BF6343F40033D3600C37BD465DF810
:10135000047B704700ED00E080B487B000AF786098
:1013600000237B6100233B610F23FB607B68DB78FC
:10137000002B3AD0274BDB68DB4303F4E0631B0A06
:101380007B617B69C3F104033B617B69FA6822FAE4
:1013900003F3FB607B685B781A463B6902FA03F350
:1013A0007B617B689B781A46FB6813407A6913431C
:1013B0007B617B691B017B61174A7B681B787969BC
:1013C000C9B213440A4683F80023134A7B681B788A
:1013D0005B09DBB218467B681B7803F01F03012111
:1013E00001FA03F342F820300FE00B497B681B78C9
:1013F0005B09DBB218467B681B7803F01F030122F0
:101400009A4000F1200341F823201C37BD465DF8C7
:10141000047B704700ED00E000E100E080B483B0A1
:1014200000AF7860396007493B6823F0604323F0E0
:101430007F037A6813438B600C37BD465DF8047BED
:10144000704700BF00ED00E080B483B000AF0346FA
:101450000A46FB711346BB71BB79002B06D00949C4
:10146000084B1A69FB7913430B6106E00549054BEC
:101470001A69FB79DB4313400B610C37BD465DF8FD
:10148000047B704700ED00E080B483B000AF78606B
:101490007B68042B06D1094A084B1B6843F0040300
:1014A000136005E0054A054B1B6823F00403136035
:1014B0000C37BD465DF8047B704700BF10E000E0CC
:1014C00080B582B000AF78607B682F4A934208D124
:1014D00004200121FFF74EFE04200021FFF74AFE01
:1014E0004EE07B68294A934208D108200121FFF78A
:1014F00041FE08200021FFF73DFE41E07B68244AC1
:10150000934208D110200121FFF734FE1020002162
:10151000FFF730FE34E07B681E4A934208D120205A
:101520000121FFF727FE20200021FFF723FE27E0FF
:101530007B68194A934208D140200121FFF71AFE27
:1015400040200021FFF716FE1AE07B68134A934201
:1015500008D180200121FFF70DFE80200021FFF738
:1015600009FE0DE07B680E4A934209D14FF480706A
:101570000121FFF7FFFD4FF480700021FFF7FAFD16
:101580000837BD4680BD00BF00080140000C014087
:10159000001001400014014000180140001C0140EF
:1015A0000020014080B500AF01200121FFF7E2FDDE
:1015B00001200021FFF7DEFD80BD00BF80B489B0AF
:1015C00000AF786039600023FB6100233B6100239A
:1015D000BB610023FB6000237B610023BB603B6891
:1015E000DB7803F00F03FB613B68DB7803F010034B
:1015F000002B05D03B689B781A46FB691343FB61BF
:101600003B681B88DBB2002B44D07B681B687B6186
:101610000023BB6138E0BB69012202FA03F3FB60DF
:101620003B681B881A46FB6813403B613A69FB68BC
:101630009A4226D1BB699B00FB60FB680F2202FA2D
:1016400003F3BB60BB68DB437A6913407B61FB68D3
:10165000FA6902FA03F37A6913437B613B68DB782A
:10166000282B05D1BB6901229A407B685A6108E0AA
:101670003B68DB78482B04D1BB6901229A407B6828
:101680001A61BB690133BB61BB69072BC3D97B6896
:101690007A691A603B681B88FF2B4AD97B685B68B4
:1016A0007B610023BB613EE0BB6908331A4601231E
:1016B0009340FB603B681B881A46FB6813403B6104
:1016C0003A69FB689A422BD1BB699B00FB60FB68BF
:1016D0000F2202FA03F3BB60BB68DB437A69134055
:1016E0007B61FB68FA6902FA03F37A6913437B6151
:1016F0003B68DB78282B07D1BB6908331A460123E6
:1017000003FA02F27B685A613B68DB78482B07D109
:10171000BB6908331A46012303FA02F27B681A6197
:10172000BB690133BB61BB69072BBDD97B687A6993
:101730005A602437BD465DF8047B704780B483B09F
:1017400000AF78607B684FF6FF721A807B680222D8
:101750009A707B680422DA700C37BD465DF8047B12
:10176000704700BF80B485B000AF78600B467B80C7
:101770000023FB737B689A687B881340002B02D0A0
:101780000123FB7301E00023FB73FB7B1846143736
:10179000BD465DF8047B704780B483B000AF7860CD
:1017A0007B689B689BB218460C37BD465DF8047B8E
:1017B000704700BF80B485B000AF78600B467B8077
:1017C0000023FB737B68DA687B881340002B02D010
:1017D0000123FB7301E00023FB73FB7B18461437E6
:1017E000BD465DF8047B704780B483B000AF78607D
:1017F0007B68DB689BB218460C37BD465DF8047BFE
:10180000704700BF80B483B000AF78600B467B8028
:101810007A887B681A610C37BD465DF8047B704797
:1018200080B483B000AF78600B467B807A887B6899
:101830005A610C37BD465DF8047B704780B483B0B5
:1018400000AF78600B467B8013467B707B78002B63
:1018500003D07A887B681A6102E07A887B685A61D3
:101860000C37BD465DF8047B704700BF80B483B081
:1018700000AF78600B467B807A887B68DA600C3733
:10188000BD465DF8047B704780B485B000AF7860DA
:101890000B467B804FF48033FB607B88FA681343F0
:1018A000FB607B68FA689A617A887B689A617B68DA
:1018B000FA689A617B689B69FB607B689B69FB6047
:1018C0001437BD465DF8047B704700BF80B485B017
:1018D00000AF03460A46FB711346BB710023FB6051
:1018E0000C4B1B68FB60FA684FF680731340FB607B
:1018F000FB791B01FA681343FB60BB79FA68134359
:10190000FB60044AFB6813601437BD465DF8047B36
:10191000704700BF0000014080B483B000AF0346B1
:10192000FB71044AFB7913600C37BD465DF8047BFC
:10193000704700BF1C00204280B487B000AF7860C1
:101940000B46FB7000233B610023FB6000237B619F
:101950000023BB607B68002B03DA2E4BDB697B61C5
:1019600002E02C4B5B687B617B6803F470231B0CEB
:10197000BB607B689BB23B617B6803F44013B3F5AB
:10198000401F0AD17B6923F070637B61214A214BA0
:101990005B6823F07063536021E07B6803F480137D
:1019A000002B0ED0BB68032202FA03F3FB60FB6836
:1019B000DB437A6913407B617B6943F070637B6131
:1019C0000DE07B685B0D1B011A463B699340DB43CE
:1019D0007A6913407B617B6943F070637B61FB78BC
:1019E000002B08D07B685B0D1B011A463B699340B6
:1019F0007A6913437B617B68002B03DA054A7B69B4
:101A0000D36102E0034A7B6953601C37BD465DF831
:101A1000047B70470000014090B484B000AF0346DF
:101A20000A46FB711346BB710023FB60BB7903F0D0
:101A300003039B000F2202FA03F3FB601649BB79F4
:101A40009B08DBB21846144ABB799B08DBB2023311
:101A500052F82320FB68DB431A40831C41F8232003
:101A60000D48BB799B08DBB21C460B4ABB799B082F
:101A7000DBB2023352F82320F979BB7903F0030378
:101A80009B0001FA03F31A43A31C40F823201037EC
:101A9000BD4690BC704700BF0000014080B483B0D9
:101AA00000AF7860034A7B6813600C37BD465DF871
:101AB000047B7047DC00204280B483B000AF034653
:101AC000FB71084997F907305B09FA7902F01F02A8
:101AD000012000FA02F241F823200C37BD465DF8E0
:101AE000047B704700E100E080B586B000AF0323BF
:101AF000BB754FF48063BB820423FB7507F11403AD
:101B00002B481946FFF75AFD4FF40073BB82182388
:101B1000FB7507F1140326481946FFF74FFD08230C
:101B2000BB820423FB7507F1140321481946FFF714
:101B300045FD0423BB821823FB7507F114031C48E1
:101B40001946FFF73BFD1B480121FEF7D3FC4FF47C
:101B500016537B6000233B820C23FB810023BB8157
:101B600000237B8100233B813B1D12481946FEF771
:101B7000A9FB104840F225510122FEF7DBFC25208D
:101B8000FFF79AFF0C480121FEF7B4FC3B1D0A4801
:101B90001946FEF797FB084840F225510122FEF74F
:101BA000C9FC2620FFF788FF1837BD4680BD00BF5F
:101BB00000080140003801400044004080B483B078
:101BC00000AF786000BF7B681B889BB203F0800386
:101BD000002BF8D07B680A229A800C37BD465DF84E
:101BE000047B704780B58AB002AF7860786840F2B5
:101BF0002551FEF717FF0346002B00F04D81A14B46
:101C000001221A707B689B899BB223F020039AB251
:101C10007B689A817B689B889BB2FB76FB7EFF2B5F
:101C200040F0FB8000BF7B681B889BB203F0200361
:101C3000002BF8D07B689B889BB2FB76FB7E122B37
:101C400000F2E18001A252F823F000BF991C0008C5
:101C5000071E0008071E0008071E0008071E0008D0
:101C6000071E0008071E0008071E0008071E0008C0
:101C7000071E0008071E0008071E0008071E0008B0
:101C8000071E0008071E0008071E0008071D0008A1
:101C9000071D0008A71D000800BF7B681B889BB2BA
:101CA00003F02003002BF8D07B689B889BB2FB7667
:101CB000FB7E0A2B26D1744A07F110031068516885
:101CC00003C312891A800023FB610023FB6112E029
:101CD00000BF7B681B889BB203F08003002BF8D009
:101CE00007F11002FB6913441B789AB27B689A8053
:101CF000FB690133FB61FB69092BE9DD7868FFF7BC
:101D00005DFF81E080E000BF7B681B889BB203F031
:101D10002003002BF8D07B689B889BB2FB76FB7E70
:101D2000202B3FD100BF7B681B889BB203F02003B0
:101D3000002BF8D07B689B889BB2FB7600BF7B684A
:101D40001B889BB203F02003002BF8D07B689B8894
:101D50009BB20A2B26D1FB7E5BB2002B0CDA4B4ADE
:101D60004A4BDB6843F01003D360484A474BDB68BB
:101D700023F02003D3600BE0444A444BDB6823F09C
:101D80001003D360414A414BDB6843F02003D3602A
:101D9000FB7E03F07F03FB764FF08043FA7E92B226
:101DA0009A8631E030E000BF7B681B889BB203F06D
:101DB0002003002BF8D07B689B889BB2FB76FB7ED0
:101DC000212B1FD100BF7B681B889BB203F020032F
:101DD000002BF8D07B689B889BB2FB7600BF7B68AA
:101DE0001B889BB203F02003002BF8D07B689B88F4
:101DF0009BB20A2B06D1264AFB7E9BB2FF339BB2D5
:101E0000138701E000E000BF7B689B899BB243F031
:101E100020039AB27B689A8133E0FB7EAA2B27D1FC
:101E200000BF7B681B889BB203F02003002BF8D017
:101E30007B689B889BB20A2B23D17B68FF229A8008
:101E40007B689B899BB243F080039AB27B689A813E
:101E500007F10C0300930F480A210422022300F02B
:101E6000C5F83A7B074B9A727A7B064BDA7270E0C0
:101E70007B689B899BB243F020039AB27B689A816E
:101E800067E066E07C040020AC330008000C0140F1
:101E90000004004000580040786840F22771FEF7C7
:101EA000C1FD0346002B54D07B689B899BB223F075
:101EB00080039AB27B689A81274B5B7ADBB29AB235
:101EC0007B689A8000BF7B681B889BB203F080030D
:101ED000002BF8D07B6862229A8000BF7B681B8849
:101EE0009BB203F08003002BF8D07B6863229A80BA
:101EF00000BF7B681B889BB203F08003002BF8D0E7
:101F0000154B9B7ADBB25BB29AB27B689A8000BFBA
:101F10007B681B889BB203F08003002BF8D00E4B2C
:101F2000DB7ADBB25BB29AB27B689A8000BF7B68D7
:101F30001B889BB203F08003002BF8D07868FFF772
:101F40003DFE7B689B899BB243F020039AB27B687D
:101F50009A812037BD4680BD7C04002080B500AF4B
:101F60000148FFF73FFE80BD0038014080B500AF5B
:101F70000148FFF737FE80BD0044004080B586B0C1
:101F800000AF0123BB754FF44063BB821C23FB757C
:101F900007F1140313481946FFF710FB00233B8198
:101FA0004BF6FF737B815523BB814FF48063FB812C
:101FB0004FF480433B8244F620637B600A48012152
:101FC00000F08EFD3B1D0848194600F0A9FC0648AC
:101FD000012100F025FE044B4FF4FA729A83183762
:101FE000BD4680BD000C01400058004080B582B065
:101FF00000AF7860084611461A460346FB700B4650
:10200000BB7013467B7006E0786800F0C9F80346A1
:10201000002B00D0C1E07B681B8B9BB203F0020356
:10202000002BF1D17B681B889BB243F480739AB27A
:102030007B681A8006E0786800F0B2F80346002B4F
:1020400000D0AAE07B689B8A9BB203F00103002BBF
:10205000F1D0FB789BB25B009AB27B681A8206E0F3
:10206000786800F09DF80346002B00D095E07B686F
:102070009B8A9BB203F00203002BF1D07B681B8B81
:1020800006E0786800F08CF80346002B00D084E06E
:102090007B689B8A9BB203F08003002BF1D0BB7856
:1020A0009AB27B681A8206E0786800F079F80346F5
:1020B000002B00D071E07B689B8A9BB203F0040385
:1020C000002BF1D07B681B889BB243F480739AB2DB
:1020D0007B681A8006E0786800F062F80346002BFF
:1020E00000D05AE07B689B8A9BB203F00103002B6F
:1020F000F1D0FB785B009BB243F001039BB29AB234
:102100007B681A8206E0786800F04AF80346002BE4
:1021100000D042E07B689B8A9BB203F00203002B55
:10212000F1D07B681B8B7B681B889BB243F4806378
:102130009AB27B681A8025E07B78012B07D17B68F7
:102140001B889BB223F480639AB27B681A8006E0F6
:10215000786800F025F80346002B00D01DE07B686E
:102160009B8A9BB203F04003002BF1D07B681B8A53
:102170009BB2DAB23B691A703B6901333B617B78F1
:10218000013B7B707B78002BD6D17B681B889BB290
:1021900043F400739AB27B681A800837BD4680BD4D
:1021A00080B483B000AF78607B689B8A9BB203F4F5
:1021B00080427B689B8A9BB203F480531A437B68FE
:1021C0009B8A9BB203F480631A437B689B8A9BB211
:1021D00003F400731A437B689B8A9BB203F48073F9
:1021E0001343002B31D07B689B8A9BB223F400738E
:1021F0009AB27B689A827B689B8A9BB223F4806345
:102200009AB27B689A827B689B8A9BB223F4804354
:102210009AB27B689A827B689B8A9BB223F4805334
:102220009AB27B689A827B689B8A9BB223F4807304
:102230009AB27B689A82084A074B1B889BB243F488
:1022400000739BB21380012300E0002318460C3773
:10225000BD465DF8047B70470058004080B582B0F1
:1022600000AF1823FB710323BB710123BB803B1D0F
:102270003A481946FFF7A2F98023BB803B1D384836
:102280001946FFF79BF937480121FFF755FB4FF03F
:1022900080424FF080431B889BB223F47F7323F06E
:1022A00003039BB213804FF080424FF080431B88A2
:1022B0009BB243F005039BB213804FF080434FF471
:1022C00096721A854FF080437F229A854FF08042A4
:1022D0004FF080431B8B9BB243F4E04343F0700309
:1022E0009BB213834FF080424FF080431B8C9BB214
:1022F00043F001039BB213841B4A1B4B1B889BB208
:1023000023F47F7323F003039BB21380164A164B0A
:102310001B889BB243F005039BB21380124B5E22D5
:102320001A85114B41F2EC329A850F4A0E4B1B8BEA
:102330009BB243F4E04343F070039BB213830A4A19
:10234000094B1B8C9BB243F030039BB21384064BAA
:102350004FF4BF721A870837BD4680BD00080140A0
:1023600000100140000C1A000004004080B582B04B
:1023700000AF16480121FFF7DFFA1023FB7102239B
:10238000BB711023BB803B1D11481946FFF716F99E
:102390002023BB803B1D0E481946FFF70FF902238F
:1023A000BB803B1D0B481946FFF708F9084A084B4C
:1023B000DB6823F01003D360054A054BDB6823F08C
:1023C0002003D3600837BD4680BD00BF0001300048
:1023D000000C01400010014080B400AF4FF080437A
:1023E00000229A86034B4FF4BF721A87BD465DF8F0
:1023F000047B70470004004080B500AF154A154BC0
:102400001B6843F0010313601249124B5A68124BC8
:1024100013404B600F4A0F4B1B6823F0847323F467
:10242000803313600B4A0B4B1B6823F4802313602B
:10243000084A084B5B6823F4FE035360054B4FF4D6
:102440001F029A6000F07AF8044B4FF000629A6025
:1024500080BD00BF001002400000FFF800ED00E06A
:1024600080B485B000AF0023FB600023BB60002375
:102470007B602D4B5B6803F00C03FB60FB68042B57
:1024800007D0082B09D0002B34D1284B284A1A60DA
:1024900034E0264B264A1A6030E0234B5B6803F495
:1024A0007013BB60204B5B6803F480337B60BB68B8
:1024B0009B0C0233BB607B68002B06D1BB681D4AB6
:1024C00002FB03F3194A136013E0174B5B6803F434
:1024D0000033002B06D0BB68164A02FB03F3134AF5
:1024E000136006E0BB68124A02FB03F30F4A136055
:1024F00004E003E00D4B0E4A1A6000BF0A4B5B6814
:1025000003F0F0031B090C4AD35CDBB2FB60074B02
:102510001A68FB6822FA03F3044A13601437BD46B5
:102520005DF8047B704700BF0010024014000020DB
:1025300000127A0000093D001800002080B500AFAD
:1025400000F002F880BD00BF80B483B000AF00236C
:102550007B6000233B603A4A394B1B6843F480336D
:102560001360374B1B6803F400333B607B68013317
:102570007B603B68002B03D17B68B3F5A06FF0D183
:102580002F4B1B6803F40033002B02D001233B6068
:1025900001E000233B603B68012B4BD1294A294BCA
:1025A0001B6843F010031360264A264B1B6823F078
:1025B00003031360234A234B1B6843F00203136099
:1025C0001F4A1F4B5B6853601D4A1D4B5B6853607D
:1025D0001B4A1B4B5B6843F480635360184A184BDB
:1025E0005B6823F47C135360154A154B5B6843F416
:1025F000F8135360124A124B1B6843F08073136048
:1026000000BF0F4B1B6803F00073002BF9D00C4A7E
:102610000B4B5B6823F003035360094A084B5B686C
:1026200043F00203536000BF054B5B6803F00C03EB
:10263000082BF9D10C37BD465DF8047B704700BF0D
:10264000001002400020024080B500AF04200121AC
:10265000FEF754FD08200121FEF750FD1020012156
:10266000FEF74CFD20200121FEF748FD4FF480408D
:102670000121FEF743FD01200121FEF73FFD4FF44C
:1026800000300121FEF758FD01200121FEF754FD25
:1026900002200121FEF750FD4FF400700121FEF7EA
:1026A0002DFD4FF480600121FEF728FD4FF48000DE
:1026B0000121FEF741FD80BD002103E00A4B5B587C
:1026C0004350043109480A4B42189A42F6D3094A4A
:1026D00002E0002342F8043B074B9A42F9D3FFF78C
:1026E0008BFE00F0A7FD7047C033000800000020FB
:1026F000600400206004002088040020FEE7000041
:1027000080B582B000AF0123BB800223BB710023E0
:10271000FB713B1D1F481946FEF750FF4FF4404028
:10272000FEF7AEFB1C4B03229A601B4B0022DA62C1
:10273000194B0A225A63184A174BDB6843F0070308
:10274000D360154A144B5B6843F020035360124A70
:10275000114B9B6843F00803936000BF0E4B9B68CE
:1027600003F00803002BF9D10B4A0B4B9B6843F095
:102770000403936000BF084B9B6803F00403002B25
:10278000F9D1054A044B9B6843F001039360083775
:10279000BD4680BD001001400024014080B400AF60
:1027A000144B1B6803F00203002B1FD0114BDB6C92
:1027B0001B09114A526813440F4A53600E4B1B7A8F
:1027C000DBB20133DAB20C4B1A720B4B1B7ADBB261
:1027D000FF2B0BD1084B00221A72074B5B681B0AB8
:1027E000DAB2054B5A72044B00225A60BD465DF8BE
:1027F000047B7047002401407C04002080B483B037
:1028000000AF03463960FB7197F90730002B0BDAF4
:102810000D49FB7903F00F03043B3A68D2B2120171
:10282000D2B20B441A7609E0084997F907303A68A2
:10283000D2B21201D2B20B4483F800230C37BD464A
:102840005DF8047B704700BF00ED00E000E100E0B0
:1028500080B582B000AF78607B68013BB3F1807FC8
:1028600001D301230FE00A4A7B68013B53604FF01C
:10287000FF300F21FFF7C2FF054B00229A60044B87
:1028800007221A60002318460837BD4680BD00BFE6
:1028900010E000E080B500AF0348FFF7D9FF6FF00C
:1028A0000400FEF7F1FD80BDC0C62D0080B500AF6D
:1028B000084A084BDB6883F08003D360064B1B7823
:1028C000DBB2002B01D1FFF787FD034B00221A700A
:1028D00080BD00BF000C01407C04002080B582B0A8
:1028E00000AF78607B680D4A93420AD14FF4001024
:1028F0000121FEF75DFC4FF400100021FEF758FCAB
:1029000009E04FF480000121FEF752FC4FF48000F3
:102910000021FEF74DFC0837BD4680BD0054004045
:1029200080B58AB000AF786039600023FB84002353
:102930007B840423BB84574BFB617B689B88FB84AF
:10294000FB8C23F03F03FB8407F108031846FEF7D6
:1029500005FB3B69FB61FB694F4AA2FB03239B0C10
:102960007B84FA8C7B8C1343FB847B68FA8C9A8083
:102970007B681B889BB223F001039AB27B681A80A4
:102980000023FB843B681B68444A934215D83B688C
:102990001B685B00FA69B2FBF3F3BB84BB8C032BAF
:1029A00001D80423BB84FA8CBB8C1343FB847B8C3F
:1029B00001339AB27B681A8440E03B68DB884BF6AF
:1029C000FF72934209D13B681A6813465B001344B7
:1029D000FA69B2FBF3F3BB840EE03B681A68134656
:1029E0009B0013449A001344FA69B2FBF3F3BB84CF
:1029F000BB8C43F48043BB84BB8CC3F30B03002B21
:102A000003D1BB8C43F00103BB84BA8CFB8C134312
:102A10009BB26FEA43436FEA5343FB847B8C4FF4D2
:102A2000967202FB03F31E4A82FB03129211DB171C
:102A3000D31A9BB201339AB27B681A847B68FA8CF2
:102A40009A837B681B889BB243F001039AB27B6830
:102A50001A807B681B88FB84FB8C23F4816323F042
:102A60000203FB843B689A883B685B8913439AB2F4
:102A7000FB8C1343FB847B68FA8C1A803B689A8931
:102A80003B681B8913439AB27B681A812837BD467D
:102A900080BD00BF00127A0083DE1B43A0860100C8
:102AA000D34D621080B483B000AF78607B6841F290
:102AB00088321A607B6800229A807B684BF6FF722E
:102AC000DA807B6800221A817B6800225A817B6849
:102AD0004FF480429A810C37BD465DF8047B704705
:102AE00080B483B000AF78600B46FB70FB78002B9E
:102AF00008D07B681B889BB243F001039AB27B68C5
:102B00001A8007E07B681B889BB223F001039AB20E
:102B10007B681A800C37BD465DF8047B704700BFA8
:102B200080B483B000AF78600B46FB70FB78002B5D
:102B300008D07B689B889BB243F400639AB27B68A1
:102B40009A8007E07B689B889BB223F400639AB26B
:102B50007B689A800C37BD465DF8047B704700BFE8
:102B600080B483B000AF78600B46FB70FB78002B1D
:102B700008D07B689B889BB243F480539AB27B68F1
:102B80009A8007E07B689B889BB223F480539AB2BB
:102B90007B689A800C37BD465DF8047B704700BFA8
:102BA00080B483B000AF78600B46FB70FB78002BDD
:102BB00008D07B681B889BB243F480739AB27B6811
:102BC0001A8007E07B681B889BB223F480739AB25B
:102BD0007B681A800C37BD465DF8047B704700BFE8
:102BE00080B483B000AF78600B46FB70FB78002B9D
:102BF00008D07B681B889BB243F400739AB27B6851
:102C00001A8007E07B681B889BB223F400739AB29A
:102C10007B681A800C37BD465DF8047B704700BFA7
:102C200080B483B000AF78600B46FB70FB78002B5C
:102C300008D07B681B889BB243F480639AB27B68A0
:102C40001A8007E07B681B889BB223F480639AB2EA
:102C50007B681A800C37BD465DF8047B704700BF67
:102C600080B485B000AF78600B46FB700023FB8119
:102C70007B689B89FB81FB8923F0FE03FB81FB784A
:102C80009BB203F0FE039AB2FB8913439BB2FB8114
:102C90007B68FA899A811437BD465DF8047B7047DA
:102CA00080B483B000AF78600B46FB70FB78002BDC
:102CB00008D07B689B899BB243F001039AB27B6882
:102CC0009A8107E07B689B899BB223F001039AB24B
:102CD0007B689A810C37BD465DF8047B704700BF66
:102CE00080B483B000AF78600B46FB70FB78002B9C
:102CF00008D07B681B889BB243F040039AB27B6884
:102D00001A8007E07B681B889BB223F040039AB2CD
:102D10007B681A800C37BD465DF8047B704700BFA6
:102D200080B483B000AF78600B467B8013467B7025
:102D30007B78002B08D07B689B889AB27B881343F2
:102D40009AB27B689A8009E07B689B889AB27B88FC
:102D5000DB439BB213409AB27B689A800C37BD4626
:102D60005DF8047B704700BF80B483B000AF78602B
:102D70000B46FB70FB789AB27B681A820C37BD4613
:102D80005DF8047B704700BF80B483B000AF78600B
:102D90007B681B8A9BB2DBB218460C37BD465DF8D8
:102DA000047B704780B483B000AF78600B46FB7043
:102DB0001346BB70BB78002B04D0FB7843F00103B3
:102DC000FB7003E0FB7823F00103FB70FB789AB201
:102DD0007B681A820C37BD465DF8047B704700BFE4
:102DE00080B485B000AF78600B46FB700023FB60B9
:102DF0007B68FB60FA78FB681344FB60FB681B8808
:102E00009BB218461437BD465DF8047B704700BF7F
:102E100080B483B000AF78600B46FB70FB78002B6A
:102E20000AD07B681B889BB26FEA43436FEA534327
:102E30009AB27B681A8007E07B681B889BB2C3F359
:102E40000E039AB27B681A800C37BD465DF8047B8E
:102E5000704700BF80B483B000AF78600B467B80C2
:102E60007B88B3F5006F08D17B681B889BB243F465
:102E700000639AB27B681A8007E07B681B889BB26C
:102E800023F400639AB27B681A800C37BD465DF864
:102E9000047B704780B483B000AF78600B467B80C2
:102EA0007B88B3F5005F08D17B681B889BB243F435
:102EB00000539AB27B681A8007E07B681B889BB23C
:102EC00023F400539AB27B681A800C37BD465DF834
:102ED000047B704780B483B000AF78600B46FB7012
:102EE000FB78002B08D07B681B889BB243F480538F
:102EF0009AB27B681A8007E07B681B889BB223F438
:102F000080539AB27B681A800C37BD465DF8047B0B
:102F1000704700BF80B483B000AF78600B467B8001
:102F20007B88B3F5006F08D17B681B889BB243F4A4
:102F300000639AB27B681A8007E07B681B889BB2AB
:102F400023F400639AB27B681A800C37BD465DF8A3
:102F5000047B704780B483B000AF78600B46FB7091
:102F6000FB78002B08D07B681B889BB243F02003C2
:102F70009AB27B681A8007E07B681B889BB223F0BB
:102F800020039AB27B681A800C37BD465DF8047B3B
:102F9000704700BF80B483B000AF78607B681B8B44
:102FA0009BB21B0A9BB2DBB218460C37BD465DF8DC
:102FB000047B704780B483B000AF78600B46FB7031
:102FC000FB78002B08D07B681B889BB243F0100372
:102FD0009AB27B681A8007E07B681B889BB223F05B
:102FE00010039AB27B681A800C37BD465DF8047BEB
:102FF000704700BF80B483B000AF78600B46FB70B1
:10300000FB78002B08D17B681B889BB243F08003C0
:103010009AB27B681A8007E07B681B889BB223F01A
:1030200080039AB27B681A800C37BD465DF8047B3A
:10303000704700BF80B483B000AF78600B467B80E0
:103040007B88B3F5804F08D07B689B8B9BB223F4C1
:1030500080439AB27B689A8307E07B689B8B9BB224
:1030600043F480439AB27B689A830C37BD465DF87F
:10307000047B704780B487B000AF7860396000236C
:103080003B610023FB600023BB600023FB757B6872
:103090009B8A9BB2FB607B681B8B9BB2BB60BB684F
:1030A0001B04BB60FA68BB68134323F07F433B619A
:1030B0003A693B681A403B689A4202D10123FB758A
:1030C00001E00023FB75FB7D18461C37BD465DF80B
:1030D000047B704780B487B000AF786000237B61C9
:1030E00000233B610023FB607B689B8A9BB23B61B2
:1030F0007B681B8B9BB2FB60FB681B04FB603A691F
:10310000FB68134323F07F437B617B6918461C37C0
:10311000BD465DF8047B704780B487B000AF78602F
:1031200039600023FB7500233B610023FB607B6853
:10313000FB603B681B0F3B613B6823F07F433B60B8
:103140003B69002B03D0FB681433FB6005E03B6850
:103150001B0C3B60FB681833FB60FB681A683B681C
:103160001340002B02D00123FB7501E00023FB7507
:10317000FB7D18461C37BD465DF8047B704700BFD9
:1031800080B485B000AF786039600023FB603B6895
:1031900023F07F43FB60FB689BB2DB439AB27B6802
:1031A0009A821437BD465DF8047B704780B485B0C1
:1031B00000AF786039600023FB730023BB603B687D
:1031C00003F0E0631B0C7A68928892B21340BB60F4
:1031D0003B6823F07F433B607B689B8A9BB21A4627
:1031E0003B681340002B05D0BB68002B02D00123A5
:1031F000FB7301E00023FB73FB7B18461437BD46CD
:103200005DF8047B704700BF80B485B000AF786084
:1032100039600023FB603B6823F07F43FB60FB6861
:103220009BB2DB439AB27B689A821437BD465DF845
:10323000047B704780B500AFFFF7DEF800F014F8AC
:10324000FFF702FAFCF790FFFFF724FBFFF706F801
:10325000FFF78CF8FEF748FCFEF790FEFFF750FAF8
:10326000FDF758FCFEE700BF80B500AF0120FDF779
:1032700015FD00204FF48011FDF720FD0220FDF721
:103280004BFD0120FDF738FD0720FDF7CFFF0020A3
:10329000FDF76EFD0020FDF787FD0020FDF7A0FD86
:1032A00080BD00BF024B13B1024800F005B8704763
:1032B00000000000C5320008014600200246034617
:1032C00000F016B838B5084B084DED1AAC1018BF11
:1032D000ED1805D0013C55F8043D9847002CF9D174
:1032E000BDE8384000F05CB8580400205C040020C1
:1032F0002DE9F047254C064625688846D5F8484113
:1033000092469946C4B360681F2817DC411C76B109
:1033100004EB8003C3F888A0D4F8885101228240CE
:103320001543022EC4F88851C3F808911ED0831C9F
:103330006160002044F82380BDE8F087144B03B39C
:103340004FF4C870AFF300800446D0B1D5F84831CF
:10335000002784E888003846C5F848410121C4F8B0
:103360008871C4F88C71002EE1D0D1E7D4F88C318B
:103370001A43C4F88C21DAE705F5A674C5F848416C
:10338000C1E74FF0FF30BDE8F08700BFBC33000855
:1033900000000000F8B500BFF8BC08BC9E467047AE
:1033A000F8B500BFF8BC08BC9E467047546865205D
:1033B0005265617065720000430000002800002023
:1033C00000000000010203040102030406070809CB
:1033D0000204060800A24A040000000000000000E9
:1033E000010203040607080900000000140300207E
:1033F0007C030020E4030020000000000000000027
:1034000000000000000000000000000000000000BC
:10341000000000000000000000000000B8330008B9
:10342000000000000000000000000000000000009C
:10343000000000000000000000000000000000008C
:10344000000000000000000000000000000000007C
:10345000000000000000000000000000000000006C
:10346000000000000000000000000000000000005C
:10347000000000000000000000000000000000004C
:10348000000000000000000000000000000000003C
:1034900001000000000000000E33CDAB34126DE6D9
:1034A000ECDE05000B000000000000000000000042
:1034B000000000000000000000000000000000000C
:1034C00000000000000000000000000000000000FC
:1034D00000000000000000000000000000000000EC
:1034E00000000000000000000000000000000000DC
:10381000A5320008310100080D0100080000000079
:0400000508000000EF
:00000001FF
